:100000005EC282C2AEC280C2E3C67EC27DC27CC274
:100010007BC27AC279C278C277C276C275C215082D
:1000200000FF00FF00FF00EB130012001A000800A1
:10003000150016000B0008000F000F0000FF00F570
:10004000280000FF00FF00FF00FF00FF00FF00FF8F
:1000500000FF00FF00FF00FF00C321020C000700AB
:100060001E002C002E002C00260211000800170094
:1000700016000B002C001A000F00040011002C00C9
:1000800016000B0012001A002C00130015001200BD
:1000900009000C000F00080016002C0031022C0093
:1000A000160208000F000800060017002D001602B7
:1000B000170015000C0011000A002C003400330258
:1000C0002C0034002C0027022C002D001500080005
:1000D00013000F000400060008002C003402370053
:1000E00025023302310016002E0234022C003300A8
:1000F0002C0021020C0007001F002C002E002C00F9
:100100000900120015000800040006000B0026027A
:100110002102160216020C0207022C000C0011002C
:100120002C0021020C0007001E0027022C002F02C9
:10013000210213000400160016002C002E002C00D3
:10014000260211000800170016000B002C001A00F0
:100150000F00040011002C0016000B0012001A0002
:100160002C0013001500120009000C000F000800FD
:1001700016002C0011000400100008002E002102BF
:10018000160216020C0207022C000E0008001C00CA
:100190002E0006000F000800040015002C0031029C
:1001A0002C00160208000F000800060017002D00A2
:1001B0001602170015000C0011000A002C00340074
:1001C0000E0208001C002C0006021200110017008D
:1001D000080011001700340027022C002D00150024
:1001E000080013000F000400060008002C00340271
:1001F000370025023302310016002E0234022C0093
:1002000033002C00110208001A002D001202050014
:100210000D000800060017002C002D0017021C001E
:100220001300080011020400100008002C00130045
:100230001600120005000D000800060017002C0033
:100240002D001302150012001300080015001700FE
:100250001C002C001F022F023402160216020C0290
:10026000070234022E002102160216020C020702B7
:1002700033003402130004001600160034022E006E
:1002800021021300040016001600300230022C0078
:100290002C0033002C0021020C00070021002C0050
:1002A0002E002C0021020C0007001F002C00310240
:1002B0002C0006021200110019000800150017009A
:1002C000170212002D000D021600120011002C0062
:1002D00033002C000C021100190012000E0008005F
:1002E0002D001A020800050015020800140018006D
:1002F0000800160017002C002D00180215000C0035
:100300002C000B00170017001300330238003800D0
:10031000040013000C00370011000B0017000B0045
:10032000080005000800160017003700100008003C
:1003300038002C002D0006021200110017000800E2
:100340001100170017021C00130008002C003402D3
:100350000400130013000F000C0006000400170037
:100360000C001200110038000D00160012001100E0
:1003700034022C002D001002080017000B001200A0
:1003800007002C0013021202160217022C002D0087
:100390000502120007001C002C0021020C000700BF
:1003A0002100330008001B000C00170028002A2B36
:1003B0002800000000000000000000000000000015
:1003C0000029000000002C9EB4A0A1A2A434A6A77E
:1003D000A5AE362D3738271E1F202122232425269F
:1003E000B333B62EB7B89F8485868788898A8B8C6D
:1003F0008D8E8F909192939495969798999A9B9CB5
:100400009D2F3130A3AD350405060708090A0B0CF2
:100410000D0E0F101112131415161718191A1B1C94
:100420001DAFB1B0B505010906A101050719E02905
:10043000E7150025017501950881029501750825CC
:1004400065190029658100C00902220001010080B0
:10045000320904000001030101000921010100012A
:100460002223000705810308000A12011001000081
:100470000008C016DB270001010200011003440040
:100480006900670069004B00650079001C03640087
:100490006900670069007300740075006D007000EA
:1004A0002E0063006F006D000403090401020408BC
:1004B000102001010101010100380037010511245C
:1004C0001FBECFE5D2E0DEBFCDBF10E0A0E6B0E0BA
:1004D000E4E1F0E102C005900D92A637B107D9F72B
:1004E00020E0A6E7B0E001C01D92AC3BB207E1F707
:1004F00014E0CEEBD4E003C02297FE0185D5CC3BBF
:10050000D107D1F752D484C57BCDA82FB92F80E075
:1005100090E041E050EA609530E009C02D918227DB
:100520009795879510F084279527305EC8F36F5F05
:10053000A8F30895EADF8D939D930895A6E0882798
:100540009927AA9569F00197E1F3B399FCCFB39B82
:10055000FECF81E09927A6B3019611F0A871D9F7D3
:100560000895CF93CFB7CF93C395B39BE9F7B39BD0
:100570000BC0B39B09C0B39B07C0B39B05C0B39B23
:1005800003C0B39B01C0D5C00F92DF93C0919F0001
:10059000DD27CA55DF4F012EB39B03C0DF910F90BB
:1005A000E6CF2F930F931F934F932FEF4F6F06B309
:1005B00003FB20F95F933F9350E03BE065C016B327
:1005C0000126502953FDC89556B3012703FB25F991
:1005D0002F7306B3B1F05027102713FB26F906B28C
:1005E0002230F0F000C016B3012703FB27F90126E3
:1005F000502906B22430E8F54F77206816B3000082
:10060000F6CF50274F7D206206B2102F000000C0A9
:1006100006B300265029102713FB26F906B2E2CFB5
:100620004F7B06B3206400C0DACF01265029187131
:1006300006B269F14E7F2160012F16B328C0002653
:1006400050294D7F06B22260102F29C00126502963
:100650004B7F06B22460012F2DC016B3012650290E
:10066000477F2860000006B22EC04F7E06B320618F
:1006700030C0422706B3499300265029102706B2FE
:100680004FEF13FB20F9297F16B379F2187159F156
:100690000126502906B2012703FB21F9237F06B367
:1006A00071F2002650293150D0F006B2102713FB0A
:1006B00022F9277E16B351F201265029012703FBA8
:1006C00006B223F92F7C49F2000006B3102713FB72
:1006D00024F90026502906B22F7939F270CF10E2A2
:1006E0001ABF002719C03B503195C31BD04010E200
:1006F0001ABF0881033C09F10B34F9F020919D00E9
:100700001981110F1213EDCF4A81441F093651F19F
:100710000D3211F0013E29F70093A4003F915F9143
:100720004F911F910F912F91DF910F90CAB7C5FD87
:100730001BCFCF91CFBFCF9118952091A40022233A
:1007400069F31091A200112379F534307AF13093D6
:10075000A20020939E0010919F003BE0311B30933C
:100760009F0024C00091A2000130F4F40AE54F700C
:1007700049F430916A0034FD1AC000936A00C6E85B
:10078000D0E019C03091910034FD11C00093910068
:10079000C2E9D0E010C0052710E000C021C0052745
:1007A00010E0C89508BB14C03AE501C032ED032E35
:1007B000C0E0D0E032E017B31861C39A08B317BBAA
:1007C00058E120E84FEF20FF052708BB2795179534
:1007D0001C3F28F700004552B0F720FF052727955A
:1007E00008BB17951C3FB8F629913A9561F7077E2B
:1007F0001091A300110F08BBC250D04011F010930C
:100800009D0010E21ABF086017B3177E402F477E85
:1008100054E05A95F1F708BB17BB48BB7FCF8F92C6
:100820009F92AF92BF92CF92DF92EF92FF92CF93BF
:10083000DF9300D000D0CDB7DEB76B017C010FD3C2
:100840004B015C011C141D041E041F049CF407D3FF
:10085000C61AD70AE80AF90AC80CD91CEA1CFB1CFC
:1008600069837A838B839C834AD169817A818B8166
:100870009C81E6CF0F900F900F900F90DF91CF915A
:10088000FF90EF90DF90CF90BF90AF909F908F90B0
:1008900008950F931F93CF93DF9300D0CDB7DEB7AA
:1008A0008C018091910084FD0CC04A83698327D11B
:1008B00080E990E50197F1F700C0000069814A8165
:1008C000F0CFF8014283638362E0C80102960F9083
:1008D0000F90DF91CF911F910F91EDC0CF93DF93D8
:1008E000EC01D7DF40E060E0CE01DF91CF91D1CFC6
:1008F000E62FF0E0EA55FC4F6491262F30E0220FFE
:10090000232F221F330B232B11F040E201C040E0C4
:100910006F77E4DF81E090E00895FC0188E790E0E4
:100920009093A1008093A00080818076803231F482
:1009300081818A3019F4838180937A0080E0089560
:1009400061E080E0F9D261E081E0F6D260ED77E02D
:1009500080E090E064CFCF93DF9380916700909127
:100960006800892B79F140E060E086E790E0B6DF2F
:10097000CEE1D0E0FE0185919491FE013196459142
:100980005491811106C0642F70E080E090E047DF51
:1009900004C0682F86E790E0A1DF229683E0CE3A7C
:1009A000D80741F780916700909168000197909374
:1009B00068008093670068E873E180E090E0DF9171
:1009C000CF912DCF809166008823C1F061E080E057
:1009D000EAD261E081E0E7D264E670E080E090E096
:1009E0006ED260E080E0DFD260E081E0DCD264E6DD
:1009F00070E080E090E0DF91CF9161C2DF91CF9114
:100A000008958FE690E09093770080937600F894B5
:100A1000BB9A27EA86E99CE0215080409040E1F7AC
:100A200000C00000BB987FD178941092790010929A
:100A3000780062E088E790E03EC0DF92EF92FF929C
:100A40000F931F93CF93DF93C8E0D0E0F12C80E8A1
:100A5000E82EDF2CDE0CD1BE71DD8C01043389E081
:100A600018070CF4FD2CE694219799F78FEF8F0D62
:100A700081BFCF2DD0E0219681B790E0C817D9076C
:100A80008CF05CDD8453994097FF03C0919581956C
:100A900091098017910714F4F1B68C0181B78F5F2B
:100AA00081BFEACFF1BEDF91CF911F910F91FF90EF
:100AB000EF90DF900895CF93C62F2091910024FFEF
:100AC00007C02091920038E823272093920003C0AA
:100AD0002AE520939100DC01E3E9F0E09C2F9E0FD2
:100AE0008D918193892F8E1B1816D4F36C2F83E977
:100AF00090E020DDCC5FC0939100CF910895CF931B
:100B0000DF938091A200835087FDA8C090919F0041
:100B100020919E002D3209F09FC0883009F09CC0C2
:100B2000CCE0D0E0C91BD109CA55DF4F83EC8093DC
:100B300086008AE580936A0010927C008881807626
:100B400019F0CE01EADE7FC09A8110928F00898170
:100B5000811106C0109290002FE830E082E06FC053
:100B6000853019F49093A30067C0863009F04EC019
:100B70008B81813041F48AE694E09093A1008093C8
:100B8000A00082E13FC0823041F488E494E0909379
:100B9000A1008093A00082E235C08330F1F491116E
:100BA00008C088EA94E09093A1008093A00084E0BC
:100BB00029C0913041F48CE894E09093A100809397
:100BC000A0008CE11FC09230E1F48CE794E0909398
:100BD000A1008093A00080E115C0813241F48AE534
:100BE00094E09093A1008093A00089E00BC0823232
:100BF00041F485E294E09093A1008093A00083E209
:100C000001C080E090E490937C001DC0883069F0C2
:100C1000893019F49093A5000FC08A3049F08B30C9
:100C200059F48BE48093920007C025EA30E002C0BB
:100C30002FE830E081E003C02FE830E080E030931F
:100C4000A1002093A0009F81911104C09E8198175C
:100C500008F4892F809369001092A20080916A00A5
:100C600084FF46C0809169008F3F09F441C0C82FBE
:100C7000893008F0C8E08C1B809369008091860061
:100C800098E8892780938600CC2331F12091A00039
:100C90003091A10080917C0086FF0BC0A7E8B0E0F6
:100CA000F9018C2F8A0F94919D9331968A13FBCF73
:100CB00009C0D901E7E8F0E08C2F8E0F9D91919348
:100CC0008E13FCCF8FEF8C0F90E00196820F931F55
:100CD0009093A1008093A0006C2F87E890E02ADC1D
:100CE000CC5FCC3019F08FEF80936900C0936A001D
:100CF00084E196B3987131F48150D9F71092A30032
:100D000010929D00C1E08111C0E080917B008C17A2
:100D100039F0C11103C0F89490DE7894C0937B0041
:100D2000DF91CF910895AC9A8BB780628BBF8BE433
:100D3000809392008AE58093910008950F931F930A
:100D4000CF93DF93EC018B01F80161918F01662352
:100D500041F0E881F9810190F081E02DCE01099503
:100D6000F3CFDF91CF911F910F910895EF92FF92F2
:100D70000F931F93CF93DF937C018A01EB01060F42
:100D8000171FC017D10751F06991D701ED91FC9160
:100D90000190F081E02DC7010995F3CFDF91CF914C
:100DA0001F910F91FF90EF900895ADD0C9DDD3DD75
:100DB000FECF83B7887F83BF8AB58C7F81608ABD71
:100DC00083B7877F83BF83B7887F836083BF08959E
:100DD00078941F920F920FB60F9211242F933F9386
:100DE0008F939F93AF93BF9380917E0090917F00EC
:100DF000A0918000B091810030917D002CE7230FFD
:100E00002D3728F02FEF230F0196A11DB11D209340
:100E10007D0080937E0090937F00A0938000B0932C
:100E200081008091820090918300A0918400B09114
:100E300085000196A11DB11D8093820090938300CF
:100E4000A0938400B0938500BF91AF919F918F9143
:100E50003F912F910F900FBE0F901F9018952FB7B5
:100E6000F89460917E0070917F0080918000909155
:100E700081002FBF08953FB7F89480918200909130
:100E80008300A0918400B09185002FB508B602FEC2
:100E900005C02F3F19F00196A11DB11D3FBF662768
:100EA000782F892F9A2F620F711D811D911D42E0AD
:100EB000660F771F881F991F4A95D1F70895CF9223
:100EC000DF92EF92FF92CF93DF936B017C01D3DF30
:100ED000EB01C114D104E104F10471F0CCDF6C1B0F
:100EE0007D0B683E7340A8F381E0C81AD108E10881
:100EF000F108C851DC4FEDCFDF91CF91FF90EF901B
:100F0000DF90CF900895789480B7806880BF80B7D5
:100F1000806480BF8CB580648CBD8FEF8DBD80B741
:100F2000807F876080BF89B7846089BF42DF86B1D8
:100F3000876086B9379A0895CF93DF9390E0FC01DC
:100F4000E455FB4F2491FC01EE54FB4F8491882320
:100F500039F190E0FC01E654FB4FA491B0E0FC01B4
:100F6000E854FB4F8491611106C09FB7F8948C91AF
:100F70002095822313C0623069F4C82FD0E09FB758
:100F8000F8948C91322F309583238C938881822B17
:100F9000888305C09FB7F8948C91822B8C939FBF58
:100FA000DF91CF910895A82FB0E0FD01E455FB4FEC
:100FB0009491FD01EE54FB4FE491EE2311F1811168
:100FC00003C08AB58F7304C0813021F48AB58F7C49
:100FD0008ABD05C0843019F48CB58F7C8CBDF0E0DF
:100FE000E854FB4FA491B0E02FB7611105C0F8940D
:100FF0008C919095892303C0F8948C91892B8C93C4
:101000002FBF0895EE0FFF1F0590F491E02D099476
:04101000F894FFCF82
:101014000000BC008000010100FF5A0000000078BD
:06102400049E06B6060062
:00000001FF
